:100000000C94FA030C9441040C9441040C944104A4
:100010000C9441040C9441040C9441040C9441044C
:100020000C9441040C9441040C949C2C0C94702D61
:100030000C940F270C9441040C9441040C9441043B
:100040000C9441040C9441040C9441040C9441041C
:100050000C9441040C9466270C9441040C944104C4
:100060000C9441040C9441040C9441040C944104FC
:100070000C9441040C9441040C9441040C944104EC
:100080000C9441040C9441040C9441040C944104DC
:100090000C9441040C9441040C9441040C944104CC
:1000A0000C9441040C9441040C94410429003A003E
:1000B0003B003C003D003E003F004000410042004C
:1000C00035001E001F002000210022002300240014
:1000D000250026002B0014001A0008001500170048
:1000E0001C0018000C001200390004001600070064
:1000F00009000A000B000D000E000F00E1001D00BA
:100100001B00060019000500110010003600015107
:10011000E000E300E2002C00E6007600E40050007E
:1001200051004F004300440045006800460047006E
:10013000480049004A004B0027002D002E002A00ED
:100140002F00300031004C004D004E0013003300F2
:1001500034002800350037003800E5004C0052001C
:10016000BF5C1E0001000100010001000100010050
:100170000100010001000100010001000100010077
:100180000100010001000100010001000100010067
:100190000100010001000100010001000100010057
:1001A0000100010001000100010001000100010047
:1001B0000100010001000100010001000100010037
:1001C0000100010001000100010001000100010027
:1001D0000100C25C0100C35C0100010001000100DC
:1001E0000100010001000100010001000100010007
:1001F00001000100010001000100010001000100F7
:1002000001000100010001000100010001000100E6
:1002100001000100010001000100010001000100D6
:1002200001000100010001000100010001000100C6
:1002300001000100010001000100010001000100B6
:1002400001000100010001000100010001000100A6
:100250000100010001000100010001000100010096
:100260000100010001000100010001000100010086
:100270000100010001000100010001000100010076
:100280000100010001000100010001000100010066
:100290000100010001000100010001000100010056
:1002A0000100010001000100010001000100010046
:1002B0000100010001000100010001000100010036
:1002C0000100010001000100010001000100010026
:1002D0000100010001000100010001000100010016
:1002E0000100010001000100010001000100010006
:1002F00001000100010001000100010001000100F6
:1003000001000100010001000100010001000100E5
:1003100001000100010001000100010001000100D5
:1003200001000100010001000100010001000100C5
:1003300001000100010001000100010001000100B5
:1003400001000100010001000100010001000100A5
:100350000100010001000100010001000100010095
:100360000100010001000100010001000100010085
:100370000100010001000100010001000000000077
:10038000000000002A2B28000000000000000000F0
:100390000000000000000029000000002C1E342096
:1003A000212224342627252E362D3738271E1F20BC
:1003B0002122232425263333362E37381F04050601
:1003C0000708090A0B0C0D0E0F1011121314151645
:1003D0001718191A1B1C1D2F3130232D3504050643
:1003E0000708090A0B0C0D0E0F1011121314151625
:1003F0001718191A1B1C1D2F3130354C0000000036
:1004000000000000000000000000000000000000EC
:1004100000000000000000000000000000000000DC
:100420007E0F00D4FFFFFFC70000007800047F3F6D
:100430001F643214643214783C1E1E140A052223F1
:10044000252628292A2C2D2F3032333536383A3BB1
:100450003D3E4042434547494A4C4E505153555703
:10046000595A5C5E6062646668696B6D6F71737522
:1004700077797B7D7F81838587898A8C8E90929422
:1004800096989A9C9E9FA1A3A5A7A8AAACAEAFB12F
:10049000B3B4B6B8B9BBBCBEBFC1C2C3C5C6C7C979
:1004A000CACBCCCDCED0D1D2D2D3D4D5D6D7D7D833
:1004B000D9D9DADADBDBDBDCDCDCDCDCDDDDDDDD85
:1004C000DCDCDCDCDCDBDBDBDADAD9D9D8D7D7D68D
:1004D000D5D4D3D2D2D1D0CECDCCCBCAC9C7C6C544
:1004E000C3C2C1BFBEBCBBB9B8B6B4B3B1AFAEAC8A
:1004F000AAA8A7A5A3A19F9E9C9A98969492908E35
:100500008C8A89878583817F7D7B79777573716F0D
:100510006D6B6968666462605E5C5A5957555351E9
:10052000504E4C4A4947454342403E3D3B3A38369F
:10053000353332302F2D2C2A292826252322FFAAB5
:100540007F55400001010101010101010102020288
:10055000020202020202030303030303030304046F
:100560000404040404050505050506060606060739
:100570000707070708080808090909090A0A0A0BF2
:100580000B0B0C0C0C0D0D0D0E0E0E0F0F0F101093
:10059000111111121213131414151516161717181A
:1005A0001819191A1A1B1B1C1D1D1E1E1F20202185
:1005B0002222232424252626272829292A2B2C2DCC
:1005C0002D2E2F30313232333435363738393A3BED
:1005D0003C3D3E3F404142434445464748494A4CE2
:1005E0004D4E4F50515354555658595A5B5D5E5FAE
:1005F000616264656668696B6C6D6F707273757744
:10060000787A7B7D7E8082838587888A8C8E8F91A5
:10061000939596989A9C9EA0A2A3A5A7A9ABADAFCF
:10062000B1B3B5B7BABCBEC0C2C4C6C9CBCDCFD1B9
:10063000D4D6D8DBDDDFE2E4E7E9EBEEF0F3F5F862
:10064000FAFDFF12035400490041004D004F005FC6
:100650000056003300000012035400490041004DD1
:10066000004F005F00560033000000040309040936
:10067000025B00030100A0FA09040000010301016C
:100680000009211101000122400007058103080033
:100690000A09040100020300000009211101000100
:1006A0002222000705820320000107050303200022
:1006B00001090402000103000000092111010001E9
:1006C00022B6000705840320000A12010002000080
:1006D0000008EDFE60600100010200010660FF09F4
:1006E00061A1010962150026FF00952075088102AD
:1006F0000963150026FF00952075089102C00501C9
:100700000902A10185020901A100050919012908B1
:10071000150025019508750181020501093009318F
:100720001581257F95027508810609381581257F79
:10073000950175088106050C0A38021581257F95FB
:100740000175088106C0C005010980A10185031952
:10075000012AB700150126B700950175108100C068
:10076000050C0901A101850419012AA00215012621
:10077000A002950175108100C005010906A101853F
:1007800005050719E029E715002501950875018180
:10079000020507190029EF1500250195F075018163
:1007A0000205081901290595057501910295017544
:1007B000039101C005010906A101050719E029E718
:1007C00015002501950875018102950175088101C3
:1007D0000507190029FF150026FF009506750881F9
:1007E0000005081901290595057501910295017506
:1007F000039101C011241FBECFEFDAE0DEBFCDBFF1
:1008000004B603FE27C08091390390913A03A0916A
:100810003B03B0913C038730904BA740B04BD1F4E1
:100820001092390310923A0310923B0310923C034A
:1008300014BE84B7877F84BF0FB6F894A8958091C3
:100840006000886180936000109260000FBEE0E05D
:10085000F8E3099511E0A0E0B1E0E6EEF0E602C0B1
:1008600005900D92A23DB107D9F723E0A2EDB1E0CA
:1008700001C01D92A933B207E1F70E9497140C94AE
:1008800036300C94000081E0089581E008950C94C6
:10089000450408950C9449041F93CF93DF9300D02F
:1008A00000D00F92CDB7DEB749835A836B83309166
:1008B000D40189819A8131111DC06623B9F02223A8
:1008C000A9F00E94CD0A182F682F89819A810E9471
:1008D000790A69817A81812F0F900F900F900F9084
:1008E0000F90DF91CF911F910C94BF220E94A50A17
:1008F000182FEFCF0E94CD0A69817A81EDCFFC01DC
:10090000262F408151816281738184810C944C0433
:1009100081E00895CF93DF93EC0160E00E947F04B3
:10092000BE01DF91CF910C944A04E1E0F0E0DF01D9
:1009300002C0AA0FBB1F6A95E2F7BD01DF0102C02A
:10094000AA0FBB1F4A95E2F76A2B01C0EE0F2A954A
:10095000EAF7962F9823961302C08E2B0895E09500
:100960008E230895242F462F682F8091F9010E942D
:1009700095040C94360A0E9423130E9423060E94B9
:10098000DD1F0C943E130C94411308950E94CE0970
:100990000E94C5042FEF84E39CE0215080409040EA
:1009A000E1F700C000000C948A270F931F93CF93A8
:1009B000DF938C0161E00E947F04EC01B8010E948A
:1009C0007020882309F448C0B801CE010E94470472
:1009D000882309F441C0B801CE010E94491F882331
:1009E000D9F1B801CE010E94F6238823A9F1B801FC
:1009F000CE010E944824882379F1B801CE010E94DB
:100A00006B25882349F1B801CE010E94981D8823E7
:100A100019F1F8018281882361F0CA35FDE5DF070D
:100A200021F170F4C115ECE5DE07A1F0CE3DDC4507
:100A3000C9F0C801DF91CF911F910F910C9443042D
:100A4000CB358DE5D807A1F0CC35DD4591F70E9477
:100A5000950EEFCF0E94C60480E0DF91CF911F91E9
:100A60000F9108950E940B10F7CF0E949E0EE1CFC8
:100A70000E94A10EDECFDF92EF92FF920F931F93A1
:100A8000CF93DF93E82FF0E0E458FC4FD490282F69
:100A900026952695269530E0F901E45EFB4F0491FA
:100AA000877010E0082E02C0159507950A94E2F7AA
:100AB00001701127F901E45FFB4FE490F12C082E3F
:100AC00002C0F594E7940A94E2F791E0E922FF244A
:100AD000F901E450FC4FC491D0E002C0D595C79510
:100AE0008A95E2F7C170DD270115110519F081EE35
:100AF0000E947306E114F10419F086EE0E94730659
:100B00008D2D0E947207EF2819F086EE0E940507CE
:100B1000012B19F081EE0E940507CD2B51F08CE2DC
:100B2000DF91CF911F910F91FF90EF90DF900C9488
:100B30007207DF91CF911F910F91FF90EF90DF909F
:100B40000895EF92FF920F931F93CF93DF93EC01E1
:100B5000162F0AE08881882309F454C0813009F0F7
:100B60004EC08981813099F47E0122E0E20EF11CB1
:100B70008A810E947207E7012196812F815050F3EC
:100B8000EFE9FFE03197F1F700C00000F7CF8230C6
:100B900041F47E0182E0E80EF11C8A810E94730616
:100BA000EACF833041F47E01E2E0EE0EF11C8A814F
:100BB0000E940507E0CF843011F02196DDCF2A8115
:100BC000229690E080E0AE014F5F5F4F2053330BE1
:100BD0002A30310548F0019778F2EFE9FFE03197CC
:100BE000F1F700C00000F7CF089FB001099F700D1A
:100BF0001124C901860F971F2981EA01E4CF0E94C1
:100C00003B05BACFDF91CF911F910F91FF90EF90ED
:100C1000089560E00C94A10508950C940C0681E001
:100C20000895CF93C82F0E940F06882331F0C1FF8B
:100C300006C05B9AC2FF05C0289ACF9108955B98C1
:100C4000F9CF2898FACF539A5B98209A289808955C
:100C5000CF93C82F0E940D068C2FCF910C941106B4
:100C6000CF93DF93CDB7DEB72B970FB6F894DEBFE7
:100C70000FBECDBF4F83588769877A878B876111F5
:100C80000E94C40E1E821D8285E0FE013796DE01A1
:100C9000119601900D928A95E1F78C819D81892BA7
:100CA00089F449815A816B817C818D819E810E946A
:100CB000C40D2B960FB6F894DEBF0FBECDBFDF91EB
:100CC000CF91089589819A8189238F3F51F3CE0175
:100CD00001960E9488048111E4CFEBCFFC01808152
:100CE00091810C94FA0ACF93C82F882309F48BC002
:100CF0008238C1F40E949A2581FD85C089E30E9453
:100D00005E0E0E94F40E2FEF81EE94E021508040A1
:100D10009040E1F700C0000089E30E94650ECF918A
:100D20000C94F40E8338A1F40E949A2580FD6BC0C8
:100D300083E50E945E0E0E94F40E2FEF81EE94E098
:100D4000215080409040E1F700C0000083E5E5CFEE
:100D50008438A1F40E949A2582FD55C087E40E9440
:100D60005E0E0E94F40E2FEF81EE94E02150804041
:100D70009040E1F700C0000087E4CFCF8CEF8C0FEC
:100D8000813A90F46C2F80910001909101010E94B2
:100D90000E26882329F08C2F0E94650E0E94F40EE7
:100DA0008C2F0E945E0EBBCF80E28C0F883048F4FF
:100DB000C77081E001C0880FCA95EAF70E94A70EAC
:100DC000AECFEBE5EC0FE33040F4F0E0EA5AFE4F33
:100DD000808190E0CF910C94CE25E8E5EC0FE731CF
:100DE00050F4F0E0EE0FFF1FE85DFE4F808191812F
:100DF000CF910C94E425C03F30F08C2F0E94251534
:100E0000CF910C94F815CF910895882309F452C01E
:100E1000823871F40E949A2581FF4CC089E30E94B8
:100E20005E0E0E94F40E89E30E94650E0C94F40E8F
:100E3000833859F40E949A2580FF3CC083E50E94C4
:100E40005E0E0E94F40E83E5EFCF843859F40E94C1
:100E50009A2582FF2FC087E40E945E0E0E94F40E46
:100E600087E4E2CF9CEF980F913AF0F290E2980F6E
:100E7000983050F4877091E001C0990F8A95EAF795
:100E8000892F0E94AD0ED2CF9BE5980F933020F4AE
:100E900090E080E00C94CE2598E5980F973120F4EF
:100EA00090E080E00C94E425803F20F00E947F15C4
:100EB0000C94F81508951F93CF93DF93182FEB012F
:100EC0000E947306209731F4812FDF91CF911F91FB
:100ED0000C9405078FE99FE00197F1F700C000002F
:100EE0002197F0CF70E060E0893311F460E570E0A5
:100EF0000C945B07882321F00E94A70E0C94F40E3B
:100F00000895882321F00E94AD0E0C94F40E0895EC
:100F1000BF92CF92DF92EF92FF920F931F93CF93E6
:100F2000DF936C01D62FC72FFC011281058102953A
:100F30000F700E947C0EE82E8823A1F0E12E112371
:100F400089F08C2F807F803429F080E28D0FE12C96
:100F5000883040F082E00E94450F0E947C0E91E0B4
:100F6000E82EE926BC2EB2949FE0B922EB2DF0E0EA
:100F7000E85CFF4C0C948A2F0C2F0F70C07F11F08F
:100F80000295007F1123A9F0002359F080E28D0F14
:100F9000883010F0D11109C0802F0E94A70E0E9446
:100FA000F40E8D2F0E94730614C0802F0E94B70E7E
:100FB000F6CF8D2F0E940507002359F080E28D0F98
:100FC000883010F0D1112CC0802F0E94AD0E0E94ED
:100FD000F40E2B2D2850330B2430310520F40E94C1
:100FE0009A250E942806EE2009F479C10E94780E05
:100FF00080FD75C1F60112820E94720E0E94470A9E
:10100000C6010E9490090E94720EDF91CF911F913C
:101010000F91FF90EF90DF90CF90BF900C94520A09
:10102000802F0E94BD0ED3CFFC2FFF70FF2EC07FFC
:10103000C03219F0F29480EFF822DD2369F0D1304C
:1010400049F1112391F1002351F1F601858180FFCF
:10105000A8CF8F70858323C0112381F0011106C0B2
:101060000E94D70E8F290E947A07B3CF0130C1F7B3
:101070000E94D70E8F290E94DD0EABCF011106C052
:101080000E94EA0E8F2D0E948107A3CF013009F440
:10109000A0CFF6CF112329F0063008F09ACF8F2D7C
:1010A000E2CF053008F095CFEDCF002359F3D933C7
:1010B00049F4FFEF27EE33E0F15020403040E1F7F4
:1010C00000C000008D2F0E94050783CF8C2F8695CE
:1010D0008695837069F0813009F07BCF8D2F9C2F2E
:1010E0009370111102C090E080E00E94E42571CF5E
:1010F0008D2F9C2F9370111102C090E080E00E9410
:10110000CE2567CF8D2F112329F00E9425150E942F
:10111000F8155FCF0E947F15FACF8C2F837079F579
:10112000111157CF4D2F429546954770440F440FEC
:101130008D2F8F70042E01C0880F0A94EAF72D2F8F
:101140002071D4FF07C02FE030E001C0220F4A9584
:10115000EAF72095C695C695C370822BC23049F038
:1011600058F4C13019F00E94280A33CF0E94230A94
:1011700030CF0E942D0A2DCF0E94210A2ACF8695BA
:10118000112311F08C2F8170882309F422CF4D2F69
:10119000429546954770440F440F8D2F8F70042E53
:1011A00001C0880F0A94EAF72D2F2071D4FF07C0E1
:1011B0002FE030E001C0220F4A95EAF72095C6954E
:1011C000C695C370822BC23049F058F4C13019F073
:1011D0000E946E0AFECE0E94690AFBCE0E94730A2C
:1011E000F8CE0E94360AF5CECF70112329F08C2F4D
:1011F0000E94470A8D2F37CF8D2F0E9481078C2F99
:101200000E94520AE6CED23F89F160F4D03FC9F085
:10121000D13F29F1112309F442C00111C2CE8C2F14
:101220008F7121C0D33F39F1D43FA1F7112369F168
:10123000CF718C2F0E94470A63E08C2F0E942A0FE7
:10124000C8CE112341F0053008F0C3CE8C2F8F712A
:101250000E945E0ABECE063008F0BBCEF7CF8C2FC0
:101260008F71112369F20E94470AB3CE8C2F8F71C0
:101270001123C9F3C5CF112329F08C2F8F710E9440
:101280003F0AA7CE0E943C0AA4CE81E00E94450FEF
:10129000023008F49ECE82E00E94450F9ACE0023D1
:1012A00059F0D93309F00ECF8FEF97EEE3E081507C
:1012B0009040E040E1F704CF8C2F8F71A1CF4C2FED
:1012C0004F706D2FC6010E9409110E94280B81CE1C
:1012D0004C2F4F706D2FC6010E940C117ACEDF91FA
:1012E000CF911F910F91FF90EF90DF90CF90BF9023
:1012F00008950F931F93CF93DF93EC016881798159
:101300008A810E94040B8C010E94780A0E94200AA4
:10131000B801CE01DF91CF911F910F910C948807F6
:10132000CF93DF93EC018B819C81892B29F08881FD
:10133000998189238F3F59F4DF91CF910895CE0190
:101340000E947909CE01DF91CF910C948A04CE01DD
:101350000E94D5048111F3CF0E947C0E882361F393
:101360008A81882349F382E0DF91CF910C94450F65
:1013700090E080E00E94CE2590E080E00E94E4258D
:101380000E94C40E0E94D40E0E94F40E0E941F17E9
:101390000C94F8150E946C0E0C94B8090E94B40EBF
:1013A0000C94CA09E92FE295EF70E250EE3070F428
:1013B000F0E0E85BFF4C0C948A2F803F19F020F49A
:1013C000883E20F481E00895843FE1F380E00895B1
:1013D000883EC0F3813FD1F7F5CF93FB882780F992
:1013E0000895FC01808191810E94FA0A0C94D2092F
:1013F000CF93DF9300D000D00F92CDB7DEB70F9020
:101400000F900F900F900F90DF91CF910895CF9391
:10141000DF9300D000D000D0CDB7DEB726960FB650
:10142000F894DEBF0FBECDBFDF91CF910895089530
:101430000C94170A0E94180A8093FA010C94B809B8
:1014400008950C941A0A9091FA01892B0C941A0AA7
:101450009091FA0189230C941A0A9091FA01892734
:101460000C941A0A0C94170A0C94320A0E94340A3B
:101470008093F9010C94B80980E00C94360A91E04D
:1014800001C0990F8A95EAF7892F0C94360A21E05A
:1014900030E001C0220F8A95EAF78091F901822B92
:1014A0000C94360A21E030E001C0220F8A95EAF759
:1014B00020958091F90182230C94360A21E030E0D6
:1014C00001C0220F8A95EAF78091F90182270C94D6
:1014D000360A9091F901892B0C94360A9091F90102
:1014E00089230C94360A9091F90189270C94360AC5
:1014F00008952AE0929F800D1124982F977041E063
:1015000001C0440F9A95EAF786958695869593E0F3
:10151000899FF0011124EB52FE4F90E080E070E0D3
:101520005191DF0111979B01082E02C03695279536
:101530000A94E2F7217021952527242325272C934F
:1015400001968330910561F708952AE0929F800DFE
:101550001124982F977086958695869523E0829F13
:10156000F0011124EB52FE4F50E040E080E0219169
:1015700030E0092E02C0369527950A94E2F72170D3
:101580003327042E01C0220F0A94EAF7822B4F5F03
:101590005F4F4330510559F70895CF92DF92FF9284
:1015A0000F931F93CF93DF936C010091F90180910A
:1015B000FA01082BC7E0D0E010E0FC2EC8010C2E89
:1015C00002C0959587950A94E2F780FD0CC021979B
:1015D000A0F7F12C8F2DDF91CF911F910F91FF90EC
:1015E000DF90CF900895B6018C2F0E9428120197AA
:1015F00071F3F0CFCF93DF93EC010E94CD0ABE01CF
:10160000DF91CF910C9428121F93CF93DF93EB01BE
:101610009091D401992331F0CB01DF91CF911F91AB
:101620000C94FA0A882379F0CB010E94CD0A182F76
:10163000682FCE010E94790ABE01812FDF91CF91E0
:101640001F910C942812CB010E94A50A182FF4CFE9
:10165000EF92FF920F931F93CF93DF938C01892B0F
:1016600081F0F12CEE24E394E8012196F8018491B5
:10167000843770F4843008F05FC08130B1F082307C
:10168000A1F1DF91CF911F910F91FF90EF900895FD
:10169000853709F44CC008F43DC09CE7980F90379B
:1016A00080F78F770E94050749C00E5F1F4FFE012C
:1016B000849190E2980F983060F48770FE2D01C0FD
:1016C000FF0F8A95EAF78F2F0E94C70E0E94F40E33
:1016D00002C00E9473068F2D815030F2EFE9FFE0C7
:1016E0003197F1F700C00000F7CF0E5F1F4FFE01EA
:1016F000849190E2980F983050F48770FE2D01C0CD
:10170000FF0F8A95EAF78F2F0E94CD0EDFCF0E9440
:101710000507E1CF0E5F1F4FFE01C491C150D8F203
:101720008FE99FE00197F1F700C00000F7CF0E5F4F
:101730001F4FFE01F490CFCF0E9473068E01CBCFD6
:101740001F93CF93DF93C091FB0116E08091FC01C2
:101750008C1304C0DF91CF911F910895D0E01C9F9E
:10176000F0011D9FF00D1124E350FE4F4081518187
:1017700062817381848195810E94070A2196C770D6
:10178000E5CF40912D0250912E0260912F02709171
:10179000300280913102909132020C94070A1F931B
:1017A000CF93DF9380913202807FA9F480912F0242
:1017B000882389F08091FB01C091FC0160912D028A
:1017C00070912E02A0913002B0913102D62FD72312
:1017D00016E0C81304C0DF91CF911F91089590E0E7
:1017E000109711F0DF3F19F401968770F2CF189F20
:1017F0009001199F300D1124F901E350FE4F4181F2
:101800004713F2CF40814613EFCF42814111ECCF15
:10181000438154814A1B5B0B483C510528F780915A
:1018200032028F70806180933202F901EE5FFD4FCA
:1018300080818F70806180838DE292E00E949009A8
:10184000DF91CF911F910C94A00BAF92BF92CF92DA
:10185000DF92EF92FF920F931F93CF93DF93CDB759
:10186000DEB761970FB6F894DEBF0FBECDBF8C0117
:1018700085E0F801DE011D9601900D928A95E1F751
:10188000F801E2808DE2C82E82E0D82E609130020D
:10189000709131026115710509F45AC190912D02C0
:1018A00020912E02892F82238F3F09F451C140815C
:1018B0005181A380B480F0902F02F501E61BF70B55
:1018C000FF2009F4F6C080913202382F307FE83CC7
:1018D000F10508F0AFC0311179C0FE2C251323C0EB
:1018E000941321C0E1101FC08F7080618093320279
:1018F0000E94C10BC6010E94900980913202F8013A
:1019000085838F2D61960FB6F894DEBF0FBECDBFD5
:10191000DF91CF911F910F91FF90EF90DF90CF90CB
:10192000BF90AF900895AB2829F0842F85238F3F77
:1019300009F027C180E0F82FF170DF2E80FF3CC056
:101940008091FB012091FC0136E0821315C04D8788
:101950005E878D859E850E94FA0A292F22952F7019
:101960002230F0F0243018F59F70F1F0F8019581E5
:10197000907FD1F4D12C1EC090E0389FF001399FA8
:10198000F00D1124E350FE4F6181651306C06081A4
:10199000641303C06281E6120FC001968770D5CF31
:1019A0009F7011F0882331F3805E883018F3C801EE
:1019B0000E949009FD2CA5CFEE2009F4A2CF8091C2
:1019C0003202816080933202F12C9BCF251306C036
:1019D000941304C0F801EE2009F487C0C8010E94E6
:1019E000F109882319F1EE2009F180913202803249
:1019F00070F020912D0230912E0238872F831986A6
:101A0000BB86AA868C87CE0107960E94900986E045
:101A1000F801ADE2B2E001900D928A95E1F70E94E3
:101A2000CF0B0E94C10BFF24F3946BCFC8010E941F
:101A30009009F9CF311113C07A2DB98AA88A6E2D79
:101A400089890E94F8098DE292E00E94900986E05F
:101A5000F60111928A95E9F70E94C10BB5CF2513C3
:101A60000FC094130DC0E1100BC0F8018583C801AD
:101A70000E94900986E0F60111928A95E9F741CF1C
:101A8000C8010E94F109882389F2EE2079F2809141
:101A90003202803208F4BBCF20912D0230912E0209
:101AA0003A8329831B82BD82AC828E83CE0101964C
:101AB000ACCFE83CF10508F03EC0FE2CEE2009F466
:101AC000B5CF25132AC0941328C08091320280FD1F
:101AD0001BC0982F907FC1F0F8018583903F31F0B3
:101AE000982F907F905F8F70892B8583C8010E940B
:101AF000900986E0F801ADE2B2E001900D928A957E
:101B0000E1F70E94C10BFDCE86E0F801ADE2B2E044
:101B100001900D928A95E1F7F4CEC8010E94F10977
:101B2000811175CF80913202816080933202C801A9
:101B30000E949009E6CE7A2DB98AA88A6E2D8989ED
:101B40000E94F80986E0F60111928A95E9F7D9CF4B
:101B5000EE2009F46BCFC8010E94F109F82E88230A
:101B600009F464CF86E0F801ADE2B2E001900D9295
:101B70008A95E1F78DE292E00E946E060E94CF0BFB
:101B8000C0CF81E08E25D7CE1F93CF93DF93CDB703
:101B9000DEB72C970FB6F894DEBF0FBECDBF4F83D4
:101BA000588769877A878B879C87CE0107960E9422
:101BB000250C882369F08A859B85892B39F04F8114
:101BC0005885842F85238F3F09F071C016E05FC0D0
:101BD00086E0FE013796DE01119601900D928A95FE
:101BE000E1F78A859B85892B89F38F8198858923E5
:101BF0008F3F61F32091FC0130E0C90101968770AD
:101C000099274091FB014817190671F40E94CE09EB
:101C10001092FC011092FB0186E0EDE2F2E0DF01A0
:101C20001D928A95E9F7D2CF96E0929FD001939FBB
:101C3000B00D1124A350BE4FFE01319601900D92BC
:101C40009A95E1F78093FC010E94A00BBFCF819F82
:101C5000C001112483509E4F0E94250C8823E9F077
:101C6000E091FB011E9FF0011124E350FE4F4081E3
:101C7000518162817381848195810E94070A8091DC
:101C8000FB0190E00196877099278093FB0180917A
:101C9000FB019091FC018913DACF2C960FB6F894D2
:101CA000DEBF0FBECDBFDF91CF911F910895698533
:101CB0007A858B859C850E94070A88CF682F809142
:101CC0000001909101010C948E26682F80910001F3
:101CD000909101010C94992680910001909101014D
:101CE0000C94A42680913302859585958595089559
:101CF000809133028770089590913302977081E04C
:101D000009F480E008959091C10292FB222720F906
:101D1000281751F080FB92F99093C1028091C00284
:101D20009091C1020C94880F08958091C10282FBAA
:101D3000882780F991E089270C94830E81E00C9428
:101D4000830E80E00C94830E809157020895909149
:101D50005702892B809357020895809590915702DE
:101D600098239093570208951092570208959091E6
:101D70005602892B809356020895809590915602C1
:101D800098239093560208951092560208959091C8
:101D90005502892B809355020895809590915502A4
:101DA00098239093550208951092550208958091BA
:101DB0003402089508950C94DA0E9091C10292FDB8
:101DC00008C090913402981721F0809334020C944B
:101DD000DB0E089580913402882329F0109234029A
:101DE00080E00C94DB0E0895E0910001F091010178
:101DF000809157028083E0910001F0910101808180
:101E000090915602892B8083E0910001F0910101AD
:101E1000808190915502892B80839091340299237F
:101E200081F0E0910001F09101018081892B808394
:101E300080910001909101010E94FA2581110E9478
:101E4000EA0E80910001909101010C94A62508955D
:101E50000C94270F9091C10292FD10C098E0899FC9
:101E600090011124622B609333020E94470A8091F3
:101E700033028595859585950C94280F0C94470A17
:101E80001092330280E00C94280F909133028095D9
:101E9000892380933302282F277039F4282F082EA6
:101EA000000C330B9217130621F49091C10292FF9C
:101EB00007C08595859585950E94520A0C94400F20
:101EC00008956FEF7FEF90E080E00C94203090E079
:101ED00080E00E94FC2F893E9E4F11F40C94192043
:101EE00080E0089582E090E00C94EE2F83E090E093
:101EF0000C94EE2FCF9384E090E00E94EE2FC82F39
:101F000082E290E00E94EE2F982F8C2FCF910895BF
:101F1000CF93C92F682F84E090E00E9402306C2F8D
:101F200082E290E0CF910C940230AB01BC018FE0D3
:101F300090E00C941430AB01BC0183E190E00C9470
:101F4000143060E070E0CB010C949B0F60E070E017
:101F5000CB010E94950F0C94A10F69EE7EEF90E0EB
:101F600080E00E94203060E082E090E00E94023039
:101F700060E083E090E00E9402301092FA0160E09D
:101F800084E090E00E94023060E082E290E00E94F3
:101F9000023060E085E090E00E94023060E086E080
:101FA00090E00E9402306FEF87E090E00E940230E4
:101FB00040E050E0BA0188E090E00E94143060E018
:101FC0008DE090E00E94023040E050E0BA0188E1EC
:101FD00090E00E94143060E087E190E00E940230BF
:101FE00040E050E0BA018CE190E00E94143070E0D3
:101FF00060E080E290E00E94203040E050E0BA01D2
:1020000088E190E00E94143080E00E9432200E941B
:1020100058200C94A60F0C94AD0F682F8EE090E022
:102020000C9402300E944B2760936F0270937002F1
:10203000809371029093720260936B0270936C02B2
:1020400080936D0290936E02089585B7806885BF76
:1020500085B7806885BF0895089508950C942C1065
:1020600008950C9430100E94251086E093E10E94A0
:10207000AE270E942D100C942E1081E008950C9430
:102080003D10089508950E9441100C9442100E9442
:1020900036270E9467200E94FF130E947E1E0E9426
:1020A000AF1C0C9431108F929F92AF92BF92CF923F
:1020B000DF92EF92FF920F931F93CF93DF93CDB7F1
:1020C000DEB72A970FB6F894DEBF0FBECDBF0E94D1
:1020D000121481110E94121059E5852E52E0952E9E
:1020E00010E000E0A02E802F0E9443136C01F40149
:1020F000E190F1904F01E816F90609F460C0809173
:10210000730281FD0E944C13C7018C259D25B12CC3
:10211000EE24E394F12C9C012E213F21232B09F482
:1021200048C00E943F108823A9F0BE82AF82CE2013
:10213000DF2081E0CD2809F480E088870E943F27D6
:102140008160782F9A8789874E815F8168858A852B
:102150000E943006000F111FF801E75AFD4F8081E1
:102160009181E826F926F182E0820E94EA1C0E9411
:10217000DC1F0E9413160E949A259091580289171D
:10218000A9F10E949A25809358022A960FB6F894D6
:10219000DEBF0FBECDBFDF91CF911F910F91FF909A
:1021A000EF90DF90CF90BF90AF909F908F900C9466
:1021B0002806B394EE0CFF1CFAE0BF12ACCF0F5F01
:1021C0001F4F0930110509F08DCF8FEF89838A8366
:1021D0001B820E943F278160782F9D838C834981D9
:1021E0005A816B818D810E943006BFCF2A960FB62F
:1021F000F894DEBF0FBECDBFDF91CF911F910F913D
:10220000FF90EF90DF90CF90BF90AF909F908F9016
:10221000089590E080E008950895FC01EE0FFF1FFF
:10222000E45DFB4F859194910895CF93DF930E94D5
:102230002C12EC01811520E5920708F042C08115AF
:1022400030E4930708F0BDC0883E910528F5803E34
:10225000910508F09DC0883A910588F4853A91056A
:1022600008F08FC08130910509F492C0009709F4FD
:102270008FC0049708F08CC0D0E0C0E089C08F3BCD
:10228000910508F489C0805C9109C03CD105A0F398
:102290000E940D11EC017CC08115904250F4C115D3
:1022A00081E0D80708F074C0C03FD10528F3D0659D
:1022B0006FC0C11590E3D90708F079C0CE019F70B7
:1022C000E7CF811525E5920758F5811534E5930789
:1022D00008F0A6C0811542E5940750F4C11581E5C8
:1022E000D80708F471C0DC2FCC27C16FD06A50C06A
:1022F000982F969596959E0123703327C115D34547
:1023000008F07FC0C1E0D0E002C0CC0FDD1F2A95ED
:10231000E2F720E2929FC0011124C82BD92B6FC095
:10232000C11589E5D807A8F4C11598E5D90708F0C3
:102330007CC0C11526E5D20708F09ECF8C2F0E94E5
:10234000C312C82FD0E0DC2FCC27CC27DF71D0629E
:102350001FC0C1153AE5D30708F46CC0CE019056F2
:102360008115904208F088CF8D2F8F710E94C31283
:1023700090E0982F882788279F719C012C2BE901DA
:10238000E6CFC55AD0E0C957DE4FC881D0E0D0644F
:10239000CE01DF91CF910895C85AD0E0CC0FDD1F58
:1023A000C75ADE4F0990D881C02DD464F1CFCE0139
:1023B0009927D3FF03C0EC01D86CEACFEC01D06CB5
:1023C000E7CFDF70D06AE4CFCE01E4E09695879541
:1023D000EA95E1F783702C2F26952695237090E2DD
:1023E000299F90011124382B8C2F8370C1E0D0E0FD
:1023F00002C0CC0FDD1F8A95E2F7C22BD32BDC681D
:10240000C7CFC1E0D0E002C0CC0FDD1F2A95E2F7B4
:1024100030E2939FC0011124C82BD92BDA68B8CFC2
:10242000D82FCC27C46FD06AB3CFDC2FCC27C06F96
:10243000D06AAECF8C2F8F700E94C31234E0D69535
:10244000C7953A95E1F7CF709C2FEC01D069A0CFEA
:102450000E94BF220C94151182389105B1F1B0F49D
:102460008133910509F475C048F48932910509F466
:1024700069C08A32910509F473C0089585339105C6
:1024800009F459C08933910501F10895833E9105FE
:10249000A9F138F4803E9105F9F0823E910549F1A9
:1024A0000895863E9105A9F1873E9105C9F1843EC4
:1024B000910519F52091C10221FF1FC08091C00232
:1024C00084FD14C087EE90E008952091C00223702F
:1024D000A1F080EE90E008952091C00220FD47C059
:1024E0003091C10230FF09C024FF44C090E080E079
:1024F00004C02091C00222FDF7CF08952091C002B0
:1025000022FD3BC03091C10230FDE3CF24FFF5CF67
:10251000EDCF2091C00223FFF0CF24FDE7CFD2CF33
:102520002091C00223FD2CC03091C10231FFEECFBB
:1025300084EE90E008952091C00225FFDECF89E26D
:1025400090E008952091C00225FFD7CF85E390E069
:1025500008952091C00226FFD0CF8AE290E008952E
:102560002091C00226FFC9CF81E390E0089589E35E
:1025700090E0089583EE90E0089582EE90E0089553
:1025800086EE90E008959091C00292FF06C0282F39
:1025900028712830F9F4877F846093FF06C0282FC4
:1025A00028712831F1F4877E84612091C10220FFD7
:1025B00006C0382F38713830D9F4877F816021FF09
:1025C00006C0282F28712831D1F4877E816194FDBF
:1025D000877E0895282F24712430F9F68B7F886038
:1025E000DCCF282F2471243101F78B7E8861DDCF69
:1025F000382F3171313019F78E7F8860E0CF282F66
:102600002171213121F78E7E8861E1CF80E008952C
:102610000C94610F0E9412142FEF86E791E0215075
:1026200080409040E1F700C000000E94121480E05A
:102630000E94431380FF04C00E9408130C948A2751
:1026400008950C940A130E94670F811102C00E9422
:102650000B100E94720F809373020E947A0F909366
:10266000C1028093C0020E9421130E94760F0E9433
:10267000210A8091F9010C94340A08950C943D13B9
:1026800008950C944013E82FF0E0EE0FFF1FEC527A
:10269000FD4F808191810895089580EA8A95F1F730
:1026A000089500C008950C944D13F894E82FE29516
:1026B000EF70F0E031A1282F2F7081E090E001C091
:1026C000880F2A95EAF7982F9095932391A392A1CA
:1026D000892B82A378940895CF93DF93C4E9D1E046
:1026E00089918F3F11F00E94551381E0CD39D807B1
:1026F000B9F7CAE8D1E089918F3F11F00E945513D4
:1027000081E0C439D807B9F7DF91CF910895AF922E
:10271000BF92CF92DF92EF92FF920F931F93CF93CE
:10272000DF938C01B62EC62FD0E0CE018C569E4F83
:102730007C01FC0120812F3F09F453C0F894E22F63
:10274000E295EF70F0E031A12F7081E090E001C0E0
:10275000880F2A95EAF7932F982B91A392A1809541
:10276000892382A378940E945113EAE8F1E030E0D3
:1027700020E0D12CC12C41E050E081918F3FE1F16C
:10278000A82FA295AF70B0E090966C9170E08F701A
:1027900002C0759567958A95E2F760FD2DC0CA0164
:1027A000022E02C0880F991F0A94E2F7C82AD92A7C
:1027B0002F5F3F4F2A30310501F7F70180818F3FAE
:1027C00011F00E94551361E0C114D10409F460E0D6
:1027D0008B2D0E945313CC0FDD1FC00FD11FD98248
:1027E000C882DF91CF911F910F91FF90EF90DF9002
:1027F000CF90BF90AF90089590E080E0D7CF0E9437
:102800006C13E2ECF2E0A4EDB2E0119211921D9291
:102810001D9282E0E43DF807C1F789E00E945D1453
:102820000C94BB04FF920F931F93CF93DF93CDB70C
:10283000DEB762970FB6F894DEBF0FBECDBF8E0134
:102840000F5F1F4F82E1F80111928A95E9F7F12C91
:102850006F2DC8010E948713F394F9E0FF12F8CF9F
:1028600042E150E0B80182EC92E00E94E12FFF24A7
:10287000F394009709F4F12C892B41F082E1F801DF
:10288000A2ECB2E001900D928A95E1F72F2D49E07C
:1028900064ED72E082EC92E00E945E140E94C30438
:1028A0008F2D62960FB6F894DEBF0FBECDBFDF91BD
:1028B000CF911F910F91FF9008950895FF920F936C
:1028C0001F93CF93DF93F82E092F162FD72FC42FE6
:1028D000222349F081E0809376020E943F27909363
:1028E000750280937402809176028823A1F0809112
:1028F0007402909175020E945727059760F0EF2DA2
:10290000F02FA12FBD2F90E080E0D0E08C179D0725
:1029100044F010927602DF91CF911F910F91FF90BA
:102920000895219131912D933D930196EFCF0E940F
:10293000B6260E9454290E946D290E947F290E9478
:102940004310FBCF80917D0280FF12C06091070190
:1029500085E0689FB0011124759567957595679519
:1029600060387105A8F561157105A1F1862F0895EC
:1029700081FF09C06091070185E0689FB0011124C3
:1029800075956795EDCF6091070182FD0AC0809132
:102990007C028823D1F0909106016091070189178C
:1029A00028F085E0689FB0011124DACF869FB0013E
:1029B000112485E0869F9001879F300D1124692F97
:1029C00070E0C9010E94542FCBCF65E070E0CECFFC
:1029D0008FE7089581E0089580917D0280FF0CC00B
:1029E0006091030170E07595679575956795611520
:1029F000710549F1862F089581FF06C0609103019A
:102A000070E075956795F3CF6091030182FD0BC06F
:102A100090917B029923A1F06091020180910301C2
:102A2000961738F0682F70E06038710500F38FE773
:102A30000895899FC001112470E00E94542FF4CFA3
:102A400061E070E0D7CF81E00895803F31F40E94CB
:102A5000A2148195809381020895813F19F40E9408
:102A6000A214F8CF823F31F40E94A2148195809382
:102A700080020895833F19F40E94A214F8CF893F81
:102A800029F40E94EC148093820208958A3F21F475
:102A90000E94EC148195F7CF8B3F31F40E94EC1427
:102AA00081958093830208958C3F19F40E94EC1461
:102AB000F8CF9CE0980F953070F4845F990B21E07B
:102AC00030E001C0220F8A95EAF780917F02822BC5
:102AD00080937F0208958D3F31F480917D02816063
:102AE00080937D0208958E3F21F480917D02826063
:102AF000F7CF8F3FB9F780917D028460F1CF40918D
:102B00008002803F59F48091810287FF0DC01092AE
:102B1000810241110BC010927C0208C0813F81F4F8
:102B20008091810218169CF3442381F080918202E7
:102B300090918302892B09F05AC010927B0208956C
:102B4000823F49F447FFF0CF1092800280918102CA
:102B50008111ECCFE0CF833F19F41416ACF3E4CF2E
:102B600090918202893F29F41916F4F6109282029C
:102B7000DBCF8A3F19F497FFD7CFF8CF909183022C
:102B80008B3F29F497FFD0CF10928302CDCF8C3F9B
:102B900019F41916CCF3C8CF9CE0980F953090F437
:102BA000845F990B21E030E0B90102C0660F771F06
:102BB0008A95E2F7CB01809590917F0289238093DB
:102BC0007F02B2CF8D3F31F480917D028E7F809362
:102BD0007D02AACF8E3F21F480917D028D7FF7CFB9
:102BE0008F3F09F0A1CF80917D028B7FF0CF0895B8
:102BF0000E943F279C019091800280918102982B36
:102C000021F030937A022093790290918202809190
:102C10008302982B21F030937802209377028EE77D
:102C200092E00C94C025EF92FF920F931F93CF93E5
:102C3000DF9300D000D000D0CDB7DEB786E0EEE75E
:102C4000F2E0DE01119601900D928A95E1F7E09095
:102C50008002F09081020091820210918302109212
:102C600080021092810210928202109283028E2DB5
:102C70008F2991F08091790290917A020E945727D2
:102C8000AC0190917C02992309F43FC08091080126
:102C90008417150608F447C0802F812B91F080918E
:102CA0007702909178020E945727AC0190917B02A5
:102CB000992309F477C0809104018417150608F45C
:102CC0007FC08091800290918102892B9091820235
:102CD000892B90918302892B11F00E94F81586E0D0
:102CE000FE013196AEE7B2E001900D928A95E1F7D0
:102CF00026960FB6F894DEBF0FBECDBFDF91CF9101
:102D00001F910F91FF90EF900895209109018AE0A3
:102D1000289F900111242417350708F0BDCF9F5F2D
:102D200090937C0202C09F3FD1F7EE2059F00E94A1
:102D3000A2149FEF1E140CF491E0899F802D1124A2
:102D400080938002FF2059F00E94A2149FEF1F146D
:102D50000CF491E0899F802D1124809381023091A1
:102D60008002332309F498CF20918102222309F4B1
:102D700093CF45EB3403C0011124992359F090936C
:102D8000800245EB240390011124332339F0309362
:102D9000810282CF81E080938002F3CF81E0809333
:102DA00081027ACF209105018AE0289F90011124A9
:102DB0002417350708F085CF9F5F90937B0202C0F0
:102DC0009F3FD1F7002359F00E94EC149FEF10169B
:102DD0000CF491E0899F802D1124809382021123AD
:102DE00059F00E94EC149FEF11160CF491E0899FAA
:102DF000802D11248093830230918202332309F4C1
:102E000060CF20918302222309F45BCF45EB34038A
:102E1000C0011124992359F09093820245EB2403B9
:102E200090011124332339F0309383024ACF81E09B
:102E300080938202F3CF81E08093830242CF86E0C9
:102E4000EEE7F2E0DF011D928A95E9F710927C022D
:102E500010927B0210927D020895EF92FF920F93E1
:102E60001F93CF93DF93EB01E82FD11110C04423C0
:102E700021F0F0E0ED5BFA4FE4916E2F7E2F8E2F64
:102E8000DF91CF911F910F91FF90EF9008950D2F3B
:102E900010E0282F30E0442329F02D5B3A4FF90150
:102EA000249130E0F6E0CF9FC0011124EFEFF0E075
:102EB000BF010E94402FAB018C2F90E0880F991F1B
:102EC000A5E5A49FB001A59F700D1124861B970B4B
:102ED000982F990F980FBF01601B710B629FD00153
:102EE000639FB00D729FB00D11248B2F9D9FB00179
:102EF0001124672F7727EF01C61BD70BBE01629FF6
:102F0000E001639FD00D729FD00D11247F01E91A5B
:102F1000F108E09EB001E19E700DF09E700D11244D
:102F2000672F7727E61BF70BE29F8001E39F100DC9
:102F3000F29F100D1124E12F722F4230510599F0AC
:102F400048F44115510569F04130510581F0EB2FEE
:102F50008D2F07C04430510569F080F0463051058F
:102F6000B1F76E2F8DCFE22F7B2F812FFACFE22F7B
:102F70007D2FF7CFEB2F822F712FF3CF7B2F822F57
:102F8000ED2FEFCF41E00C942D1708950C94C2174C
:102F9000CF93DF93762FE901682F842F0E94C61705
:102FA000798368838A83DF91CF9108958091E602C7
:102FB000982F9E7F29F4817082608093E6020895A5
:102FC0008A34E8F381708864F8CF88E090E00C944C
:102FD000F62FCF92DF92EF92FF926B017C010E945D
:102FE000D617B701A60188E090E0FF90EF90DF9040
:102FF000CF900C9414306091E6027091E7028091BA
:10300000E8029091E9020C94E917E6EEF2E083E021
:10301000808311828FEF8283838314826081718128
:10302000828193810C94E9178091E60280FF02C0AF
:103030008695089580E008959091EA02933018F4FF
:103040009F5F9093EA02882351F06091E6027091AD
:10305000E7028091E8029091E9020C94E917089543
:1030600081E00C941C189091EA02992319F0915078
:103070009093EA02882351F06091E6027091E70292
:103080008091E8029091E9020C94E917089581E09B
:103090000C9433188091EA0208958093EA02662323
:1030A00051F06091E6027091E7028091E802909100
:1030B000E9020C94E917089560E00C944D18809192
:1030C000E70208958091E80208958091E902089549
:1030D00070E00C94ED1F60910E018091E60280FF7C
:1030E0000AC080910D0123E0829FC0011124855107
:1030F0009D4F0C94681880910F019091100123E06E
:10310000829FF0011124E551FD4F891750F711827C
:10311000108212828F5F3396F8CF9091E60290FF73
:1031200014C090910F012091100133E0939FF001A2
:103130001124E551FD4F921710F00C946B18818308
:10314000608342839F5F3396F6CF0895CF93DF93DA
:1031500000D00F92CDB7DEB79091E60290FF0AC083
:103160009E012F5F3F4F0E94C8174B8169818A8162
:103170000E948D180F900F900F90DF91CF910895BE
:10318000CF93DF93EC01EC81F0E0E25CFB4F4491E4
:10319000E6EEF2E0628181810E94A6188C818F5F49
:1031A0008C83DF91CF910895CF93DF93EC01E6EE0E
:1031B000F2E0438162818C810E94A6188C818F5F2E
:1031C0008C83DF91CF9108950F931F93CF93DF935B
:1031D00000D00F92CDB7DEB78C01809184028111AF
:1031E0000AC09E012F5F3F4F4FEF6FEF0E94C8173D
:1031F0008A8180938402F8016481613069F0809152
:10320000840240E0662361F040E0623011F44091B6
:10321000840280E060E004C06091840240E080E0CD
:103220000E948D18F801848190E0019663E070E0BF
:103230000E94542F84830F900F900F90DF91CF91B5
:103240001F910F910895AF92BF92CF92DF92EF92AC
:10325000FF920F931F93CF93DF9300D00F92CDB7C0
:10326000DEB7182FF62E042FE22E9091E60290FF83
:1032700029C0E92FE695AE2FB0E0A356BE4F8C9142
:1032800080938E029E7F923059F59E012F5F3F4FB3
:10329000812F0E94C8174B8169818A810E948D18F5
:1032A0001093E702F092E8020093E902EE2051F059
:1032B0006091E6027091E7028091E8029091E90244
:1032C0000E94E9170F900F900F90DF91CF911F91FF
:1032D0000F91FF90EF90DF90CF90BF90AF90089547
:1032E000823019F40091E902DBCF863019F4109195
:1032F000E702D6CF8930D9F3893191F6E9518E2F83
:103300008170D82EE695F0E0E25CFA4FA590B4907B
:10331000C12CBB2460911101C61618F00E946B18D5
:10332000BFCF2C2D30E0A29EC001A39E900DB29E77
:10333000900D112470E00E94402F812FD11013C0F6
:10334000860F40910F01420F532F511D9A01220FFA
:10335000331F240F351F25513D4F402F6F2D0E94E5
:10336000C817C394D7CF861BECCFE6EEF2E091816D
:10337000282F4381628188E0890F0C94231981E012
:103380000C94B519E6EEF2E09181282F4381628119
:1033900088EF890F0C94231981E00C94C219E6EE92
:1033A000F2E0628128E0620F08F46FEF282F43817A
:1033B00081810C94231981E00C94CF19E6EEF2E0A0
:1033C000628128E0621B08F460E0282F438181813C
:1033D0000C94231981E00C94DE19E6EEF2E04381AF
:1033E00028E0420F08F44FEF282F628181810C946E
:1033F000231981E00C94ED19E6EEF2E0438128E018
:10340000421B08F440E0282F628181810C9423192B
:1034100081E00C94FC1920E00C942319EF92FF92A8
:103420001F93CF93DF93EC0110E0EE24EA94F12C8C
:1034300060911101161770F00E946B189A818C81AF
:1034400090FF27C08F5F8C83DF91CF911F91FF90FA
:10345000EF90089520910F01422F410F5527551FDE
:10346000CA019A01220F331F280F391F25513D4FE2
:1034700070E0C7010E94542F962F8C814091E90281
:103480006091E802199F800D11240E94C8171F5FE8
:10349000CFCF8150D8CFAF92BF92CF92DF92EF9231
:1034A000FF920F931F93CF93DF93FC0182810FEF65
:1034B00080FF01E010E044E1A42E80911101181773
:1034C000C8F00E946B1880918602013009F055C047
:1034D000811102C080911101815080938602DF9199
:1034E000CF911F910F91FF90EF90DF90CF90BF9001
:1034F000AF900895C0910F01C12ED12CCC0DDD2DC0
:10350000D11DCE01880F991FC80FD91FC551DD4F9E
:10351000198218821A8234E0E32EF12CB12C8091AA
:1035200086028B0D85311CF16A2D0E94322F892F66
:10353000082E000C990BC816D90691F48091E90267
:103540008E9DA0018F9D500D112455954795559541
:1035500047959E016091E8028091E7020E94C8179A
:10356000B00EF1E0EF1AF108D1F61F5FA6CF87FF8A
:10357000DFCF90911101890FDBCF90E00196609130
:10358000110170E00E94542FA8CF0F931F93CF9387
:10359000DF9380910F019091100123E0829FF00151
:1035A0001124E551FD4F891740F1C0E0D3E060914F
:1035B0001101C61740F10E946B1820910B018091F8
:1035C0008502820F8093850290910C01920F909357
:1035D0000C01191654F4082E000C990B409111019E
:1035E0004150550B841795071CF0219520930B0132
:1035F000DF91CF911F910F91089511821082128255
:103600008F5F3396D0CF0C2F10E070E0C8010E947E
:10361000542F20910F01820F482F50E020918502F6
:10362000022E000C330B02171307BCF020910C0183
:10363000022E000C330B201731077CF08D9F900178
:10364000112425513D4F4091E9026091E80280919B
:10365000E7020E94C817CF5FAACFFA01EE0FFF1F43
:10366000E40FF51FE551FD4F118210821282F3CF56
:103670008F929F92AF92BF92CF92DF92EF92FF9282
:103680000F931F93CF93DF93EC014C81042F10E035
:103690009801D8010E949F2F9B01AC010E94B52F79
:1036A0004B015C01E0E2F0E0E01BF10BA5E5B0E0CE
:1036B000AC019B010E94B52F6B017C019F01DF01D2
:1036C0000E94972F9B01AC010E94C02F9B01AC016F
:1036D000280D391D4A1D5B1DC701B6010E94682FC8
:1036E000F22E822F90E039E23F1560F143E0249FF3
:1036F0009001112435952795122F109500E085E54E
:10370000E82EEF1880911101081758F10E946B18EC
:103710009C8181E0992319F0903219F48FEF809306
:103720000A0180910A01890F8C83DF91CF911F914B
:103730000F91FF90EF90DF90CF90BF90AF909F9050
:103740008F90089525E530E0B901681B790B9B0146
:10375000220F331F260F371F37FFCCCF2F5F3F4F6E
:10376000C9CF8E2D01FD8F2D20910F01622F600F8B
:103770007727771F9B01220F331F260F371F2551F5
:103780003D4F412F6091E8020E94C8170F5FBACFEA
:103790000F931F93CF93DF93EC0110E000E0909123
:1037A00011019017110609F06CF40E946B188C81BE
:1037B00090E00196817099278C83DF91CF911F91C2
:1037C0000F91089520910F01A801420F511D9A01F8
:1037D000220F331F240F351F25513D4F4C8160911F
:1037E000E8028091E70296959017110651F04CF08F
:1037F000442349F04091E9020E94C8170F5F1F4F10
:10380000CECF4423B9F340E0F7CFE6EEF2E080817B
:103810008E7F808360817181828193810E94E9170C
:1038200010928F022FEF80E792E02150804090406D
:10383000E1F700C000000C946B18E6EEF2E0808126
:103840008E7F808310928F022FEF80E792E02150CD
:1038500080409040E1F700C000000C946B1860912C
:10386000E602669570E04BE050E082E191E00E9454
:10387000D42F892B19F481E080938F020E943F2777
:10388000909388028093870208959091E60290FFBA
:1038900035C09170811128C092609093E602662332
:1038A00051F06091E6027091E7028091E8029091F8
:1038B000E9020E94E9176091E602669570E04BE02C
:1038C00050E082E191E00E94D42F892BA1F0109268
:1038D0008F0281E080938A024091E9026091E802C0
:1038E0008091E7020C940B1A853210F09864D5CFC2
:1038F000880F982BD2CF0E942F1CEBCF0895682FF2
:103900009091E602969581E0890F853208F081E07A
:103910000C94451C81E00C947F1C682F9091E6026A
:1039200096958FEF890F09F484E20C94451C81E091
:103930000C948D1C61E00C94451CE6EEF2E0808155
:103940008160808386950C949A1C8091E60280FDAC
:103950000C94051C0C949D1C60E00C94451C8091FB
:103960008D0281112EC00E94670F811104C00E9438
:103970000B100E9405180E94E5176093E6027093F1
:10398000E7028093E8029093E9026E7F61F40E945F
:1039900005180E94E5176093E6027093E702809392
:1039A000E8029093E9020E94D61710928F0280914C
:1039B000E60280FF03C086950E94AC1C81E08093E4
:1039C0008D020895E6EEF2E0808181608083869525
:1039D0000C94AC1C0F931F93CF93DF9380918F02B5
:1039E000882309F486C080918E02E091E602E69574
:1039F000E81BE0938902823091F5F0E0E65CFB4F32
:103A0000E491CE2FD0E000EC18E180918A02882367
:103A100061F010928A020E943F279093880280935F
:103A2000870210928C0210928B020E943F27E09135
:103A30008702F09188028E1B9F0B8F3F9F4708F0F3
:103A400058C0EC0FFD1FF0938802E093870287E8CF
:103A500092E0F801DF91CF911F910F910994863088
:103A600049F4F0E0E95CFB4FE491CE2FD0E004EDA7
:103A700018E1CBCF893051F4E695F0E0EC5CFB4FD8
:103A8000E491CE2FD0E00EE01AE1BFCF8F3051F499
:103A9000E695F0E0EF5CFB4FE491CE2FD0E00BE435
:103AA0001AE1B3CF853149F4F0E0E25DFB4FE491D8
:103AB000CE2FD0E005EC1AE1A8CFC8E2D0E008E3B1
:103AC0001BE1883109F4A1CF833239F4ECE2F4E050
:103AD000C591D49104EE18E198CFC4EFD1E008EC81
:103AE0001BE1843209F491CFC0EDD7E005EC17E17A
:103AF0008CCFDF91CF911F910F910895FA01811121
:103B000001C0FB010994CF93DF93C82FD62F0E94E9
:103B100014188C1740F00E9414188D1720F4DF91B0
:103B2000CF910C948A1C8C2FDF91CF910C949A1C0E
:103B30001F93CF93DF93EC01FB011281112309F452
:103B4000C0C00E94A40E8272CC3CFCE5DF0709F4E1
:103B50009CC008F044C0C63CECE5DE0709F481C017
:103B6000F0F4C33C9CE5D90709F471C048F4C23CA9
:103B7000DC4509F469C0812FDF91CF911F91089531
:103B8000C43C9CE5D90709F467C04CEC59E16FEBE4
:103B900079E1C53CDC4579F70E947E1D53C0C93CE4
:103BA000FCE5DF0709F467C068F4C73CECE5DE0715
:103BB00009F45CC04BED59E16AEE79E1C83CDC45A3
:103BC00059F3D9CFCA3C9CE5D90709F459C047E459
:103BD00058E160E378E1CB3CDC45F1F2CCCFC13D6C
:103BE000FCE5DF0709F462C098F4CE3C9CE5D907F8
:103BF00009F454C008F44EC0CF3CFCE5DF0709F4DB
:103C000052C0C03DDC4509F0B6CF6EE089E048C047
:103C1000C43D9CE5D90709F44FC058F4C23DFCE50A
:103C2000DF0709F446C0C33DDC4509F0A4CF88E1B5
:103C300032C0C53D9CE5D90709F441C0CD35DD450D
:103C400009F099CF10E097CF0E94A51CFBCF47E960
:103C50005CE16AE87CE1A0CF4AE85CE167E97CE1ED
:103C60009BCF4FEB59E16CEC79E196CF4AEE59E1ED
:103C70006BED79E191CF48E05AE169EF79E18CCFC2
:103C800049EF59E168E07AE187CF40E358E167E422
:103C900078E182CF81E00E949A1CD4CF65E082E077
:103CA0000E94831DCFCF68E086E0FACF64E18FE009
:103CB000F7CF67E185E1F4CF62E289E1F1CF83E2FA
:103CC000EACF11E058CF86E090E00C94EE2F682FF9
:103CD00086E090E00C940230809127030C94671EDC
:103CE000E7E2F3E080818470896180830C94671E31
:103CF0008091270386958695869508950E94670F83
:103D0000811104C00E940B100E94701E0E94631E4D
:103D100080932703803220F0877088618093270387
:103D200090912703892F817090FF04C0892F869579
:103D3000869586950C947E1F80912703982F9695E3
:103D400096959695933040F49F5F990F990F990F30
:103D50008770892B8093270380912703816080934C
:103D600027030E94671E8091270386958695869576
:103D70000C947E1F80912703982F987F79F08850AC
:103D800080932703887F91E009F490E080912703D6
:103D900090FB80F9809327030E94671E8091270380
:103DA0008695869586950C947E1F8091270380FDCD
:103DB00013C0816080932703813019F489E08093D8
:103DC0002703809127030E94671E80912703869511
:103DD000869586950C947E1F08958091270380FF19
:103DE00008C08E7F809327030E94671E80E00C949A
:103DF0007E1F08958091270380FD0C94ED1E0C9486
:103E0000D51E90912703892F8695869586958F5F7D
:103E10008F7197708430D8F4880F880F880F892BA2
:103E20008093270380912703887F91E009F490E035
:103E30008091270390FB80F9809327030E94671EDF
:103E4000809127038695869586950C947E1F909386
:103E50002703E8CF843008F083E090912703977020
:103E6000282F220F220F220F922B90932703987F47
:103E700021E009F420E09091270320FB90F9909332
:103E800027030C947E1F0E942A1F809127030C9405
:103E9000671E9C01FB018281882349F12D3BFCE5D3
:103EA0003F07C9F040F42B3BECE53E0769F02C3BA3
:103EB0003C4579F008952F3B9CE5390791F070F06F
:103EC000203C3C4589F0089583E00E94431F80E038
:103ED000089580E0FACF0E94BA1EF9CF0E949C1E7E
:103EE000F6CF0E94FA1EF3CF0E94011FF0CF81E0AF
:103EF0000895259A2D9808952D980895CF92DF92D0
:103F0000EF92FF92CF93C82F843040F5811127C0E4
:103F1000809180008F77809380000E947C1F2C2FDF
:103F200030E0AFEFBFEF0E949F2F23E030E040E092
:103F300050E00E94682FC9012C3764E13607A8F4CD
:103F400069E070E00E94402F7093890060938800C0
:103F5000CF91FF90EF90DF90CF900895C3E08091D4
:103F60008000806880938000DACF2A50374D4F4F11
:103F70005F4F942F832F722F662725EF38E241E0A1
:103F800050E00E94682F69017A01CA01B9010E94BC
:103F9000222F9B01AC01C701B6010E94222F672F7F
:103FA000782F892F99276115710521E082079105E6
:103FB00059F66FEF7FEFC8CF08950E94791F82E80E
:103FC0008093800089E1809381008FEF9FEF909331
:103FD0008700809386000C947E1E279A45B14F7708
:103FE00055B15068EFB7F8949B01220F331F260F8D
:103FF000371F280F391F2817390741F4EFBF8FE506
:1040000094E00197F1F700C000000895DC016D9184
:10401000CD0178E055B9000000C067FF45B9660FD3
:10402000000000C000C000C045B900C07A9591F7FB
:10403000E2CF83E290E00E94EE2F813289F484E2A5
:1040400090E00E94EE2F813159F485E290E00E94C9
:10405000EE2F91E0863009F090E0892F817008956D
:1040600080E0FCCFCF93C82F6FEF811161E283E234
:1040700090E00E9402306FEFC11161E184E290E0B4
:104080000E9402306FEFC11166E085E290E0CF91AF
:104090000C940230089586E290E00E94EE2F682F83
:1040A00070E090E080E0089586E290E00C940230A9
:1040B00080E00E94322060E070E0CB010E9454203A
:1040C0000E9437220E94232381E00C9432200E9418
:1040D0004A200E941920811102C00C945820089592
:1040E000CF93FB01C281CC2309F19C0122513F45B2
:1040F0002031310520F582510E943323C0E08C2FFE
:10410000CF91089581E00E94470A43E062E081E098
:104110000E94B204F3CF81E00E94520A43E062E0C1
:1041200081E00E94B204EBCF82E0F6CF8031FFE560
:104130009F0789F381319F45B9F3C1E0E0CF80311A
:10414000EFE59E07F9F281319F45C9F682E0DBCFAA
:104150002FEFFC0120830895CF93DF93EC0188813A
:10416000893029F08A3079F0DF91CF9108950E944B
:10417000781E2FEF829FC001112463E070E00E943F
:10418000402F6983F1CF1982EFCFFC0120812930C4
:1041900061F48181F3E08F9FC00111246FEF70E023
:1041A0000E94402F862F0C942A1F0895CF93DF93EF
:1041B000EC0188818138A9F028F4803871F0DF9112
:1041C000CF910895823881F08338C9F70E945F1833
:1041D00089830E9462188A83F2CF0E9465188983BE
:1041E000EECF0E941418FBCF0E944A18F8CFCF934D
:1041F000DF93EC0188818138E1F028F4803869F0A0
:10420000DF91CF910895823811F18338C9F70E9468
:104210006518482F6A81898108C0D9810E94621877
:10422000C82F0E945F184D2F6C2FDF91CF910C94F7
:104230000B1A89810E94AC1C8981811104C0DF9115
:10424000CF910C941D1CDF91CF910C94E21C8981BD
:10425000DF91CF910C945C18DF92EF92FF920F9355
:104260001F93CF93DF93EC01D62EDC01ED918D01EE
:10427000E150E33108F0B8C0F0E0EA5AFF4C0C948A
:104280008A2F198289E08A836D2DCE01DF91CF912B
:104290001F910F91FF90EF90DF900C944928898136
:1042A000823069F0833071F08130D9F40E944B275D
:1042B0000E94902F6A837B838C839D83E5CF0E942D
:1042C0004B20F6CF7E0110E0812F0E944313F701AF
:1042D000928383831F5FF2E0EF0EF11C1930A1F788
:1042E000D3CF6D2DCE010E94A820CECF8981823000
:1042F000C1F76A817B818C819D810E94902F0E94F1
:104300005420C2CF4B816A8189810E94092298275B
:10431000892798279D838C83B7CF2C813D813227B5
:10432000232732274B816A8189810E942222ACCFC8
:104330000E943722A9CFCD010E94C520C8010E944A
:10434000F720A2CFCD010E94AC20C8010E94D62048
:104350009BCF0E946C1E0E94FB1796CF0E94CC221E
:10436000898392CF0E94CE229827892798279A8303
:1043700089838ACF6B8170E089819A81AE014C5F1D
:104380005F4F9827892798270E94D1227DCF6B8184
:1043900070E089819A81AE014C5F5F4F9827892731
:1043A00098270E94F82270CF0E9423236DCF0E948D
:1043B000F721D6CF6B8170E089819A81AE014C5F85
:1043C0005F4F9827892798270E946F225DCF6B81C6
:1043D00070E089819A81AE014C5F5F4F98278927F1
:1043E00098270E94952250CF8FEF88834DCF84E08D
:1043F000089550E0440F551F94E1699F400D511DF1
:10440000112494EB899F400D511D1124CA018796F8
:1044100008950F931F93CF93DF930E94F9218C018E
:104420000E94EE2FC82FD0E0DC2FCC27C8010196C8
:104430000E94EE2F9E01282BC901DF91CF911F9181
:104440000F9108950F931F93CF93DF93122F032F94
:104450000E94F921EC01602F0E940230612FCE01F1
:104460000196DF91CF911F910F910C940230AF9282
:10447000BF92CF92DF92EF92FF921F93CF93DF9381
:104480008CEAC82E80E0D82ED0E07601C0E014C0BF
:10449000F50125913491412F6C2F8D2F0E942222FE
:1044A00082E0A80EB11C1F5F1A3091F784E1E80E7C
:1044B000F11CCF5FC93019F0570110E0E9CFDF5F81
:1044C00084EBC80ED11CD43001F7DF91CF911F913E
:1044D000FF90EF90DF90CF90BF90AF900895EF9254
:1044E000FF920F931F93CF93DF93EC018A017C011E
:1044F000E60EF71ECE018796CE15DF0539F4DF9163
:10450000CF911F910F91FF90EF900895C03D22E051
:10451000D20740F40E94EE2FF80180830F5F1F4FF7
:104520002196E8CFF8011082F9CFCF92DF92EF9277
:10453000FF920F931F93CF93DF937C016A018C014D
:10454000060F171FEC01CE018796C017D10749F45B
:10455000DF91CF911F910F91FF90EF90DF90CF905F
:104560000895C03D22E0D20740F4FE01EE19FF0994
:10457000EC0DFD1D60810E9402302196E4CF462F94
:10458000843038F4793028F46A3018F4672F0C94AA
:10459000092290E080E0089580E1089589E091E0AB
:1045A0000895EF92FF920F931F93CF93DF93EC0147
:1045B0008A017C01E60EF71ECE0189509D4FCE1573
:1045C000DF0539F4DF91CF911F910F91FF90EF90AC
:1045D0000895C93021E0D20740F40E94EE2FF8017F
:1045E00080830F5F1F4F2196E7CFF8011082F9CF2C
:1045F000CF92DF92EF92FF920F931F93CF93DF93AF
:104600007C016A018C01060F171FEC01CE01895055
:104610009D4FC017D10749F4DF91CF911F910F91A2
:10462000FF90EF90DF90CF900895C93021E0D2073E
:1046300040F4FE01EE19FF09EC0DFD1D60810E94A2
:1046400002302196E3CFCF93DF93C7EFD2E060E053
:10465000CE010E9402302196C11584E0D807B9F737
:10466000DF91CF910895DF92EF92FF920F931F9306
:10467000CF93DF9300D000D0CDB7DEB7F82E8FE018
:104680008F1540F08FEF93E00E94EE2F07EF12E0BE
:104690008823C1F00F900F900F900F90DF91CF9172
:1046A0001F910F91FF90EF90DF900895011584E026
:1046B000180781F3C8010E94EE2F811101C0FA94FE
:1046C0000F5F1F4FF110F2CF19821A821B821C82DA
:1046D000DD24D39478018FEFE81AF80AC8010E940C
:1046E000EE2F89831A828823A9F29FEF980F9330C7
:1046F00078F48A83D9820E5F1F4FC7010E94EE2F84
:104700008B83882339F2CE0101960E940906E2CFFD
:104710008701F9CF0F931F93CF93DF93C42FD22F2D
:10472000FC0182818823C9F0409392020E943F27B6
:10473000909391028093900280E28C0F883008F071
:1047400050C0C77081E001C0880FCA95EAF7DF91B9
:10475000CF911F910F910C947A071091920214132C
:1047600035C080919002909191020E945727883C19
:10477000910560F5C0E2CD0F1D17B9F080E2810F01
:10478000883040F4177081E001C0880F1A95EAF76D
:104790000E948107C83048F481E09D2F977001C0C6
:1047A000880F9A95EAF70E947A07802F0E94720775
:1047B000C830B8F4D77081E001C0880FDA95EAF705
:1047C000DF91CF911F910F910C94810780E28C0FA4
:1047D000883038F4C77081E001C0880FCA95EAF7C5
:1047E000EFCFDF91CF911F910F9108950F939C010F
:1047F000CB01233F4CE5340759F1A8F4283DFCE5F3
:104800003F0701F1293D4CE53407D1F1273D3C45F7
:1048100091F406E221EE41EE67ED7CE50E948A23E9
:1048200080E00F910895253FFCE53F07E9F0B0F0E7
:10483000263F3C45F9F0FC018281882339F1109232
:104840009202EFCF07E225EE45EE68ED7CE5E6CF7C
:1048500006E221EE40EE63EF7CE5E0CF07E225EED5
:1048600044EE64EF7CE5DACF06E221EE42EE65EF3E
:104870007CE5D4CF07E225EE46EE66EF7CE5CECFB1
:1048800008E221E045EE69ED7CE5C8CF81E0C9CFC3
:10489000CF93DF93EC01FB018281882309F419C1D6
:1048A000C230FCE5DF07C0F1C6319CE5D90730F026
:1048B0009E012A5F3C452930310570F50E947A0F30
:1048C0009093C1028093C002C031ECE5DE0709F489
:1048D000CFC008F05BC0C8308CE5D80709F4B6C07B
:1048E00088F5C430ECE5DE0709F4A8C0C0F4C23096
:1048F0008CE5D80709F49CC08091C0028260C33067
:10490000DC4509F498C08091C0029091C1020E94D8
:10491000880F0E94CE0980E0DF91CF9108958091A9
:10492000C0028061C630ECE5DE0709F484C08091E6
:10493000C0028860C730DC4508F47DC08091C002A9
:10494000806279C0CC308CE5D80709F489C070F456
:104950008091C0028C60CA30ECE5DE0709F46BC0C0
:1049600008F478C08091C0028E7F65C0CE308CE59F
:10497000D80709F479C08091C0028B7FCF30DC4525
:1049800008F459C08091C0028F7E55C0CB3FECE542
:10499000DE0709F457C030F5C3318CE5D80709F4B8
:1049A0006FC078F4C131ECE5DE0709F465C0C231AF
:1049B000DC4509F0A8CF0E94CE098091C0028F7714
:1049C0003AC0C5318CE5D80709F462C008F476C056
:1049D0008091C1028160CA3FDC4509F094CF809389
:1049E000C10291CFCF3FFCE5DF0709F44DC088F449
:1049F0008091C1028D7FCD3F9CE5D90781F38091E5
:104A0000C1028E7FCE3FDC4550F38091C1028360AE
:104A1000E6CFC130FDE5DF0709F459C008F444C012
:104A200080E0C230DD4509F06ECF0E940D106BCFE3
:104A30008091C00281608093C00265CF8091C002E6
:104A40008460F9CF8091C1028260C9CF8091C00299
:104A50008064F1CF0E94CE098091C0028068EBCFC4
:104A60008091C0028D7FE7CF8091C002877FE3CF26
:104A70008091C0028F7DDFCF8091C0028F7BDBCF22
:104A80008091C002837FD7CF8091C1028C7FA7CF56
:104A90008091C00282FB992790F921E0922790FB38
:104AA00082F990FB83F9C7CF8091C102982F90952E
:104AB00091708E7F892B90FB81F991CF0E94CE0956
:104AC0009091C002892F97FB87F98058B4CF81E07D
:104AD000ACCF81E021CFCF93DF93EB0186319C45B2
:104AE00011F50E94A40E9A81992399F08A7A91E097
:104AF00009F490E090939302811109C089E20E9429
:104B00005E0E0E94F40E80E0DF91CF91089585E360
:104B1000F6CF80919302811104C089E20E94650E54
:104B2000F0CF85E3FBCF81E0EFCF909399028093A4
:104B300098020895E0919802F0919902309721F03F
:104B40000190F081E02D099480E00895E0919802B1
:104B5000F0919902309799F020912701222359F082
:104B60002091C00227FF07C0DC012C9111962C93E5
:104B7000119725E02C930280F381E02D099408958C
:104B8000E0919802F0919902309739F022E0DC012F
:104B90002C930480F581E02D0994089520919602CC
:104BA000309197022817390771F0909397028093FC
:104BB0009602E0919802F0919902309721F00680D8
:104BC000F781E02D09940895209194023091950287
:104BD0002817390771F09093950280939402E09121
:104BE0009802F0919902309721F00084F185E02D30
:104BF00009940895FC01329680912701882321F0C1
:104C00008091C0029EE187FF96E080E0915008F419
:104C1000089521912223D1F38F5FF8CF662301F10C
:104C2000209127012223F1F02091C00227FF1AC012
:104C3000462F4695469546954E3190F4677021E093
:104C400030E002C0220F331F6A95E2F7840F911DF6
:104C5000FC01828190E02823392381E0232B69F431
:104C600080E00895FC01329608962191261721F0E4
:104C7000E817F907D1F7F4CF81E008959C01FC0112
:104C800032969FEF80E04191461751F09F3F19F413
:104C9000411101C0982F8F5F8630A9F79F3F09F41B
:104CA0000895290F311D97FD3A95F9016283089502
:104CB000FC01329608962191261303C0DF0111975B
:104CC0001C92E817F907B9F70895E62FE695E695DF
:104CD000E695EE3168F4E80FF92FF11D677021E0D9
:104CE00030E001C0220F6A95EAF78281822B82832D
:104CF0000895E62FE695E695E695EE3170F4E80F17
:104D0000F92FF11D677021E030E001C0220F6A9594
:104D1000EAF7209582812823228308952091270194
:104D2000222329F02091C00227FD0C9465260C94C3
:104D30003E2620912701222329F02091C00227FD41
:104D40000C9479260C945826FC0132968091270108
:104D5000882351F08091C00287FF06C08EE1DF01F9
:104D60001D928A95E9F7089586E0F9CF0895089590
:104D700008950C94B82680913003843061F10E942C
:104D8000B92680E00E947E1F80E00E9428061092D3
:104D90009A0288E190E020E40FB6F894A8958093F9
:104DA00060000FBE2093600083B7817F846083BF63
:104DB00083B7816083BF7894889583B78E7F83BFE4
:104DC0000FB6F894A8958091600088618093600088
:104DD000109260000FBE08950895CF930E94B726E9
:104DE0000E9412140E94EC26C0E08C2F0E944313F4
:104DF000892B31F4CF5FC930C1F780E0CF9108959E
:104E000081E0FCCF08950C9402270E94CE090E94F5
:104E10007E1E0E949A250E9428060C9403271F924A
:104E20001FB61F9211248F939F93AF93BF938091CE
:104E30009A02811113C08091280390912903A091B7
:104E40002A03B0912B034196A11DB11D8093280325
:104E500090932903A0932A03B0932B03BF91AF91A2
:104E60009F918F911F901FBE1F90189582E084BD67
:104E700093E095BD9AEF97BD80936E0008952FB78C
:104E8000F8948091280390912903A0912A03B0916E
:104E90002B032FBF08952FB7F894609128037091CA
:104EA000290380912A0390912B032FBF08959C0121
:104EB0004FB7F8948091280390912903A0912A0379
:104EC000B0912B034FBF821B930B089578941F92D0
:104ED0001FB61F9211248F939F93AF93BF9380911E
:104EE000280390912903A0912A03B0912B030196E6
:104EF000A11DB11D8093280390932903A0932A0339
:104F0000B0932B03BF91AF919F918F911F901FBEC4
:104F10001F90189581E08093E00080E28093D80094
:104F20001092C9008FE19EE40197F1F700C00000E4
:104F300087E090EBDC018093390390933A03A093D0
:104F40003B03B0933C0388E19CE00FB6F894A8952E
:104F5000809360000FBE90936000FFCF9093D301C9
:104F60008093D20108958091BE02089590913003FC
:104F7000943029F580939B0270939D0260939C026C
:104F80009093E9008FEF9091E800815095FD06C065
:104F900095ED9A95F1F700008111F5CF8091E80029
:104FA00085FF0DC050E040E063E070E08BE992E0E7
:104FB0000E94422A8091E8008E778093E80008954D
:104FC000BC0184E00C94B627BC0183E00C94B627A6
:104FD0009C0184E08093E9009FEF8091E80091506C
:104FE00085FD06C085ED8A95F1F700009111F5CF9A
:104FF0008091E80085FF0CC050E040E066E070E082
:10500000C9010E94422A8091E8008E778093E800CF
:105010000895CF93DF93EC01809127018823B1F1AC
:105020008091C00287FF32C060E284E08093E90093
:105030008FEF9091E800815095FD06C095ED9A950F
:10504000F1F700008111F5CF8091E80085FF1BC0CA
:105050008091270170E050E040E0811104C050E0F1
:1050600040E068E070E0CE010E94422A8091E800B2
:105070008E778093E80080E2FE01AEE9B2E0019015
:105080000D928A95E1F7DF91CF91089568E081E074
:10509000CDCFCF93FC01603221F580913003843075
:1050A00001F5C091E900CF702091EC00922F917032
:1050B00020FD90E8C92B82E08093E9008091E80010
:1050C00080FF0CC050E040E060E270E0CF010E9441
:1050D000422A8091E8008E778093E800CF70C093D9
:1050E000E900CF91089580912F03811109C00E949A
:1050F000212C0E947E2C8091E20084608093E2004B
:10510000089510922F03089508950895089542E098
:1051100061EC81E00E949D2B42E261EC84E00E9400
:105120009D2B42E261EC82E00E949D2B42E260EC0A
:1051300083E00C949D2B80913203833009F461C08D
:1051400030F48130D1F1823009F49DC008958A3065
:1051500009F489C08B3009F46FC0893009F050C060
:1051600080913103813209F04BC0809135039091D9
:105170003603009719F0029709F042C08091E800C9
:10518000877F8093E8008091E80082FF35C090918E
:10519000F3008091F200029729F48091F1008B7F57
:1051A000813021F48091F1008093BE028091E8006B
:1051B0008B778093E8000C94D12B80913103813A56
:1051C000F9F48091E800877F8093E80080913503AF
:1051D00090913603892B61F460E28EE992E070E0F1
:1051E0000E94E02A8091E8008B778093E800089580
:1051F00060E090E080E0F3CF809130038111C3CF75
:10520000089580913103813AD9F7809135039091C7
:105210003603892BA9F78091E800877F8093E80007
:105220008091E80080FFFCCF809127018093F100FE
:105230008091E8008E77BDCF80913103813201F7F4
:105240008091350390913603892BD1F68091E80047
:10525000877F8093E8000E94D12B80913303809355
:1052600027010C94CE0980913103813249F6809157
:10527000E800877F8093E8000E94D12B809134035F
:105280008093BF02089580913103813A09F0B8CF2D
:105290008091E800877F8093E8008091E80080FF9C
:1052A000FCCF8091BF02C2CF84B7877F84BF0FB687
:1052B000F894A895809160008861809360001092B6
:1052C00060000FBE80E890E00FB6F8948093610014
:1052D000909361000FBE0C9433100E94212C0E9409
:1052E0007E2CE2EEF0E080818460808378940E94DE
:1052F000072F0E9447108DE191E00C949525CF93E4
:10530000DF93CDB7DEB7A0970FB6F894DEBF0FBE20
:10531000CDBF80913003853031F4809130038530EA
:1053200091F10E9405270E94531080913003843030
:1053300009F583E08093E9008091E80082FF1AC0BC
:105340008091E80090E085FF09C050E040E060E215
:1053500070E0CE0101960E94912A91E08091E800D0
:105360008B778093E800992329F060E2CE010196C3
:105370000E942C21A0960FB6F894DEBF0FBECDBFC1
:10538000DF91CF9108950E94BB2680912E03882340
:1053900021F20E94ED26882309F4BFCF0E942C2A17
:1053A0000E94CE09BACF0C94D529292F3327233058
:1053B000310521F168F42130310509F443C0223070
:1053C000310509F444C090E080E030E020E026C0E0
:1053D0002132310551F122323105A9F763307105CF
:1053E00090F7FB01EE0FFF1FEB53FE4F2081318141
:1053F0006E537E4FFB01808190E010C09927813071
:10540000910581F0009729F00297E9F6E3E4F6E0D0
:1054100002C0EBE6F6E0849190E09F01FA0131834F
:1054200020830895E7E5F6E0F6CF6330710558F67E
:10543000660F771FFB01E553FE4F2081318189E024
:1054400090E0ECCF82E190E02AEC36E0E7CF8BE50C
:1054500090E02FE636E0E2CF80E189BD82E189BDB0
:1054600009B400FEFDCF8091D8008F7D8093D800D5
:105470008091E00082608093E0008091E00081FDF7
:10548000FCCF0895AF92BF92CF92DF92FF920F931D
:105490001F93CF93DF936C01EB018A010E94F02BE5
:1054A000F82E811123C00115110539F0F801808112
:1054B0009181C81BD90BC80ED91EB12CA12C2097E5
:1054C000A9F08091E80085FD22C08091E8008E77E8
:1054D0008093E80001151105A1F0F8018081918108
:1054E000A80EB91EB182A08285E0F82E8F2DDF9123
:1054F000CF911F910F91FF90DF90CF90BF90AF9011
:1055000008950E94F02B8823D1F2F82EEFCFF601F8
:1055100081916F018093F1002197FFEFAF1ABF0ACD
:10552000CECFAF92BF92CF92DF92FF920F931F9395
:10553000CF93DF936C01EB018A010E94F02BF82ED0
:10554000811123C00115110539F0F8018081918185
:10555000C81BD90BC80ED91EB12CA12C2097A9F0BD
:105560008091E80085FD22C08091E8008B778093D0
:10557000E80001151105A1F0F80180819181A80EC4
:10558000B91EB182A08285E0F82E8F2DDF91CF91D8
:105590001F910F91FF90DF90CF90BF90AF90089533
:1055A0000E94F02B8823D1F2F82EEFCF8091F100EA
:1055B000F60181936F012197FFEFAF1ABF0ACECF9B
:1055C000FC01809137039091380386179707A0F06C
:1055D0006115710529F49091E8009E779093E80099
:1055E00090E06115710551F4911108C08091E800B7
:1055F00082FF34C080E00895BC01F2CF8091300377
:105600008823C1F18530C1F18091E80083FD30C06D
:105610008091E80082FDEACF8091E80080FFE1CF31
:105620008091F3002091F200382F6115710519F077
:105630002830310558F091E02830310509F090E02C
:105640002091E8002E772093E800CBCF81918093C2
:10565000F100615071092F5F3F4FE7CF8091300318
:10566000882341F0853041F08091E80083FFBECF70
:1056700081E0089582E0089583E00895FC0180911F
:1056800037039091380386179707A0F061157105CD
:1056900029F48091E8008E778093E80090E061150E
:1056A000710551F4911108C08091E80082FF35C066
:1056B00080E00895BC01F2CF809130038823C9F1C6
:1056C0008530C9F18091E80083FD31C08091E80008
:1056D00082FDEACF8091E80080FFE1CF8091F30066
:1056E0002091F200382F6115710519F0283031052D
:1056F00058F091E02830310509F090E08091E80001
:105700008E778093E800CBCF84918093F10031961F
:10571000615071092F5F3F4FE6CF8091300388239E
:1057200041F0853041F08091E80083FFBDCF81E0FA
:10573000089582E0089583E00895982F973028F027
:105740008F708093E90081E008959093E900242F01
:10575000762F50E0981731F07091EC002091ED0019
:105760005091F00021FD02C09F5FE8CF3091EB0027
:105770003E7F3093EB003091ED003D7F3093ED00A4
:105780003091EB0031603093EB007093EC0020938C
:10579000ED005093F0002091EE0027FDE5CF80E072
:1057A00008958091310387FF13C08091E80082FF44
:1057B00006C08091E8008B778093E80004C0809158
:1057C00030038111F2CF0895809130038823D9F3FB
:1057D0008091E80080FFF8CF8091E8008E77ECCFD1
:1057E0002091E4003091E50095E6A9012091EC00BC
:1057F000822F817020FF06C08091E80080FF06C0E4
:1058000080E008952091E80022FD1AC080913003C5
:10581000882389F0853089F08091EB0085FD0FC0E9
:105820002091E4003091E50042175307F9F29150BE
:10583000E1F684E0089582E0089583E0089581E030
:1058400008950E948F2C0E94972CE0EEF0E080815A
:1058500081608083E8EDF0E080818F77808319BCE0
:10586000A7EDB0E08C918E7F8C9380818F7E8083BA
:1058700010922F0308950F931F93CF93DF930E94ED
:105880008F2C0E94972CC8EDD0E088818F77888379
:1058900088818068888388818F7D888319BC109275
:1058A000300310922C0310922E0310922D0300EE61
:1058B00010E0F80180818B7F8083888181608883FC
:1058C00042E060E080E00E949D2BE1EEF0E080810C
:1058D0008E7F8083E2EEF0E0808181608083808132
:1058E00088608083F80180818E7F808388818061D9
:1058F0008883DF91CF911F910F910895E8EDF0E03B
:1059000080818F7E8083E7EDF0E0808181608083FD
:1059100084E082BF81E080932F030C943B2CE8ED60
:10592000F0E080818E7F80831092E20008951092D3
:10593000DA001092E10008951F920F920FB60F92B5
:1059400011242F933F934F935F936F937F938F9384
:105950009F93AF93BF93EF93FF938091E10082FFFA
:105960000BC08091E20082FF07C08091E1008B7F35
:105970008093E1000E94062F8091DA0080FF19C019
:105980008091D80080FF15C08091DA008E7F8093CF
:10599000DA008091D90080FF96C080E189BD82E164
:1059A00089BD09B400FEFDCF81E0809330030E94E1
:1059B00073288091E10080FF19C08091E20080FF90
:1059C00015C08091E2008E7F8093E2008091E2001A
:1059D00080618093E2008091D80080628093D8003B
:1059E00019BC85E0809330030E9485288091E100F6
:1059F00084FF2BC08091E20084FF27C080E189BD35
:105A000082E189BD89B5982F917080FFFBCF80918D
:105A1000D8008F7D8093D8008091E1008F7E8093A5
:105A2000E1008091E2008F7E8093E2008091E200AD
:105A300081608093E20080912C03882309F449C09F
:105A400084E0809330030E9486288091E10083FFE8
:105A500029C08091E20083FF25C08091E100877F0B
:105A60008093E10082E08093300310922C038091B8
:105A7000E1008E7F8093E1008091E2008E7F809331
:105A8000E2008091E20080618093E20042E060E009
:105A900080E00E949D2B8091F00088608093F00050
:105AA0000E948428FF91EF91BF91AF919F918F91B8
:105AB0007F916F915F914F913F912F910F900FBE0A
:105AC0000F901F90189519BC109230030E948128E6
:105AD00070CF8091E30087FD93E090933003B3CFC4
